{
  "contractName": "Purchasing",
  "abi": [
    {
      "constant": false,
      "inputs": [
        {
          "internalType": "string",
          "name": "artId",
          "type": "string"
        },
        {
          "internalType": "address",
          "name": "user",
          "type": "address"
        },
        {
          "internalType": "bytes32",
          "name": "imgn",
          "type": "bytes32"
        }
      ],
      "name": "purchase",
      "outputs": [],
      "payable": false,
      "stateMutability": "nonpayable",
      "type": "function"
    },
    {
      "constant": true,
      "inputs": [
        {
          "internalType": "address",
          "name": "user",
          "type": "address"
        }
      ],
      "name": "getImageNames",
      "outputs": [
        {
          "internalType": "bytes32[]",
          "name": "",
          "type": "bytes32[]"
        }
      ],
      "payable": false,
      "stateMutability": "view",
      "type": "function"
    },
    {
      "constant": true,
      "inputs": [
        {
          "internalType": "address",
          "name": "user",
          "type": "address"
        }
      ],
      "name": "getproducts",
      "outputs": [
        {
          "internalType": "string[]",
          "name": "",
          "type": "string[]"
        }
      ],
      "payable": false,
      "stateMutability": "view",
      "type": "function"
    }
  ],
  "bytecode": "0x608060405234801561001057600080fd5b50610ad0806100206000396000f3fe608060405234801561001057600080fd5b50600436106100415760003560e01c80635a4a52d4146100465780639f8ffd8514610062578063c4228d8114610092575b600080fd5b610060600480360361005b91908101906106af565b6100c2565b005b61007c60048036036100779190810190610686565b6101f1565b60405161008991906108e8565b60405180910390f35b6100ac60048036036100a79190810190610686565b6103c6565b6040516100b9919061090a565b60405180910390f35b6000808373ffffffffffffffffffffffffffffffffffffffff1673ffffffffffffffffffffffffffffffffffffffff16815260200190815260200160002084849091806001815401808255809150509060018203906000526020600020016000909192939091929390919290919250919061013e9291906104ed565b50506000808373ffffffffffffffffffffffffffffffffffffffff1673ffffffffffffffffffffffffffffffffffffffff16815260200190815260200160002080600181540180825580915050906001820390600052602060002001600060405180602001604052806000815250909190915090805190602001906101c492919061056d565b505080600185856040516101d99291906108b8565b90815260200160405180910390208190555050505050565b6060806000808473ffffffffffffffffffffffffffffffffffffffff1673ffffffffffffffffffffffffffffffffffffffff168152602001908152602001600020805480602002602001604051908101604052809291908181526020016000905b8282101561030e578382906000526020600020018054600181600116156101000203166002900480601f0160208091040260200160405190810160405280929190818152602001828054600181600116156101000203166002900480156102fa5780601f106102cf576101008083540402835291602001916102fa565b820191906000526020600020905b8154815290600101906020018083116102dd57829003601f168201915b505050505081526020019060010190610252565b505050509050606081516040519080825280602002602001820160405280156103465781602001602082028038833980820191505090505b5090506060600080600090505b84518110156103b95784818151811061036857fe5b6020026020010151925060018360405161038291906108d1565b9081526020016040518091039020549150818482815181106103a057fe5b6020026020010181815250508080600101915050610353565b5082945050505050919050565b60606000808373ffffffffffffffffffffffffffffffffffffffff1673ffffffffffffffffffffffffffffffffffffffff168152602001908152602001600020805480602002602001604051908101604052809291908181526020016000905b828210156104e2578382906000526020600020018054600181600116156101000203166002900480601f0160208091040260200160405190810160405280929190818152602001828054600181600116156101000203166002900480156104ce5780601f106104a3576101008083540402835291602001916104ce565b820191906000526020600020905b8154815290600101906020018083116104b157829003601f168201915b505050505081526020019060010190610426565b505050509050919050565b828054600181600116156101000203166002900490600052602060002090601f016020900481019282601f1061052e57803560ff191683800117855561055c565b8280016001018555821561055c579182015b8281111561055b578235825591602001919060010190610540565b5b50905061056991906105ed565b5090565b828054600181600116156101000203166002900490600052602060002090601f016020900481019282601f106105ae57805160ff19168380011785556105dc565b828001600101855582156105dc579182015b828111156105db5782518255916020019190600101906105c0565b5b5090506105e991906105ed565b5090565b61060f91905b8082111561060b5760008160009055506001016105f3565b5090565b90565b60008135905061062181610a5f565b92915050565b60008135905061063681610a76565b92915050565b60008083601f84011261064e57600080fd5b8235905067ffffffffffffffff81111561066757600080fd5b60208301915083600182028301111561067f57600080fd5b9250929050565b60006020828403121561069857600080fd5b60006106a684828501610612565b91505092915050565b600080600080606085870312156106c557600080fd5b600085013567ffffffffffffffff8111156106df57600080fd5b6106eb8782880161063c565b945094505060206106fe87828801610612565b925050604061070f87828801610627565b91505092959194509250565b6000610727838361081a565b60208301905092915050565b600061073f838361087f565b905092915050565b60006107528261094c565b61075c8185610992565b93506107678361092c565b8060005b8381101561079857815161077f888261071b565b975061078a83610978565b92505060018101905061076b565b5085935050505092915050565b60006107b082610957565b6107ba81856109a3565b9350836020820285016107cc8561093c565b8060005b8581101561080857848403895281516107e98582610733565b94506107f483610985565b925060208a019950506001810190506107d0565b50829750879550505050505092915050565b610823816109e2565b82525050565b600061083583856109c5565b9350610842838584610a0c565b82840190509392505050565b60006108598261096d565b61086381856109c5565b9350610873818560208601610a1b565b80840191505092915050565b600061088a82610962565b61089481856109b4565b93506108a4818560208601610a1b565b6108ad81610a4e565b840191505092915050565b60006108c5828486610829565b91508190509392505050565b60006108dd828461084e565b915081905092915050565b600060208201905081810360008301526109028184610747565b905092915050565b6000602082019050818103600083015261092481846107a5565b905092915050565b6000819050602082019050919050565b6000819050602082019050919050565b600081519050919050565b600081519050919050565b600081519050919050565b600081519050919050565b6000602082019050919050565b6000602082019050919050565b600082825260208201905092915050565b600082825260208201905092915050565b600082825260208201905092915050565b600081905092915050565b60006109db826109ec565b9050919050565b6000819050919050565b600073ffffffffffffffffffffffffffffffffffffffff82169050919050565b82818337600083830152505050565b60005b83811015610a39578082015181840152602081019050610a1e565b83811115610a48576000848401525b50505050565b6000601f19601f8301169050919050565b610a68816109d0565b8114610a7357600080fd5b50565b610a7f816109e2565b8114610a8a57600080fd5b5056fea365627a7a723158202c92fcb8c7c5bdc5fd4c536341121d482135768a9c2548aaf5cb90caa44a615c6c6578706572696d656e74616cf564736f6c63430005100040",
  "source": "pragma solidity ^0.5.0;\npragma experimental ABIEncoderV2;\n\ncontract Purchasing {\n\n\tmapping(address => string[]) products;\n\tmapping(string => bytes32) imgName;\n\t\n\n\n\tfunction purchase(string calldata artId, address user, bytes32 imgn) external {\n\t\t\n\t\tproducts[user].push(artId);\n\t\tproducts[user].push(\"\");\n\n\t\timgName[artId] = imgn;\n\n\n\t}\n\n\tfunction getImageNames(address user) public view returns (bytes32[] memory){\n\n\t\tstring[] memory list = products[user];\n\t\tbytes32[] memory names = new bytes32[](list.length);\n\t\tstring memory nameProduct;\n\t\tbytes32 nameImg;\n\t\t\n\t\t\n\t\tfor(uint256 i=0; i<list.length; i++){ //la lunghezza di list però conta anche le stringhe vuote\n\n\t\t\tnameProduct = list[i]; //ok list è la stessa lista di getproducts\n\t\t\tnameImg = imgName[nameProduct];\n\t\t\t\n\t\t\tnames[i]= nameImg;\n\n\t\t\t\n\t\t}\n\n\t\treturn names;\n\n\t}\n\n\n\tfunction getproducts(address user) public view returns (string[] memory) {\n  \t\treturn products[user];\n\t}\n\n}\n",
  "sourcePath": "/Users/andreamarrocco/Desktop/WineParadise/E-commerce-DApp/Back-End/contracts/Purchasing.sol",
  "compiler": {
    "name": "solc",
    "version": "0.5.16+commit.9c3226ce.Emscripten.clang"
  },
  "schemaVersion": "3.4.3",
  "updatedAt": "2021-09-07T10:22:43.691Z",
  "networkType": "ethereum",
  "devdoc": {
    "methods": {}
  },
  "userdoc": {
    "methods": {}
  }
}