{
  "contractName": "Purchasing",
  "abi": [
    {
      "constant": true,
      "inputs": [
        {
          "internalType": "uint256",
          "name": "",
          "type": "uint256"
        }
      ],
      "name": "buyers",
      "outputs": [
        {
          "internalType": "address",
          "name": "",
          "type": "address"
        }
      ],
      "payable": false,
      "stateMutability": "view",
      "type": "function"
    },
    {
      "constant": false,
      "inputs": [
        {
          "internalType": "uint256",
          "name": "artId",
          "type": "uint256"
        }
      ],
      "name": "purchase",
      "outputs": [
        {
          "internalType": "uint256",
          "name": "",
          "type": "uint256"
        }
      ],
      "payable": false,
      "stateMutability": "nonpayable",
      "type": "function"
    },
    {
      "constant": true,
      "inputs": [],
      "name": "getBuyers",
      "outputs": [
        {
          "internalType": "address[6]",
          "name": "",
          "type": "address[6]"
        }
      ],
      "payable": false,
      "stateMutability": "view",
      "type": "function"
    }
  ],
  "bytecode": "0x608060405234801561001057600080fd5b5061031f806100206000396000f3fe608060405234801561001057600080fd5b50600436106100415760003560e01c8063efef39a114610046578063f2aa821814610088578063f64bfaba146100f6575b600080fd5b6100726004803603602081101561005c57600080fd5b810190808035906020019092919050505061013c565b6040518082815260200191505060405180910390f35b6100b46004803603602081101561009e57600080fd5b8101908080359060200190929190505050610214565b604051808273ffffffffffffffffffffffffffffffffffffffff1673ffffffffffffffffffffffffffffffffffffffff16815260200191505060405180910390f35b6100fe610247565b6040518082600660200280838360005b8381101561012957808201518184015260208101905061010e565b5050505090500191505060405180910390f35b600080821015801561014f575060058211155b61015857600080fd5b600073ffffffffffffffffffffffffffffffffffffffff166000836006811061017d57fe5b0160009054906101000a900473ffffffffffffffffffffffffffffffffffffffff1673ffffffffffffffffffffffffffffffffffffffff16146101bf57600080fd5b33600083600681106101cd57fe5b0160006101000a81548173ffffffffffffffffffffffffffffffffffffffff021916908373ffffffffffffffffffffffffffffffffffffffff160217905550819050919050565b6000816006811061022157fe5b016000915054906101000a900473ffffffffffffffffffffffffffffffffffffffff1681565b61024f6102c8565b60006006806020026040519081016040528092919082600680156102be576020028201915b8160009054906101000a900473ffffffffffffffffffffffffffffffffffffffff1673ffffffffffffffffffffffffffffffffffffffff1681526020019060010190808311610274575b5050505050905090565b6040518060c0016040528060069060208202803883398082019150509050509056fea265627a7a7231582043158c14bfa0c62a0b58b625414fb7f95807c1e4fa155849457a25cacf5520b864736f6c63430005100032",
  "source": "pragma solidity ^0.5.0;\n\ncontract Purchasing {\n\n\taddress [6] public buyers;\n\n\tfunction purchase(uint artId) public returns (uint) {\n  \t\trequire(artId >= 0 && artId <= 5);\n\n  \t\trequire (buyers[artId] == address(0x0));  \t\t\n\n  \t\tbuyers[artId] = msg.sender;\t//The address of the person or smart contract who called this function is denoted by msg.sender\n\n  \t\treturn artId;\n\t}\n\n\tfunction getBuyers() public view returns (address[6] memory) {\n  \t\treturn buyers;\n\t}\n\n}\n",
  "sourcePath": "/Users/andreamarrocco/Desktop/DappCyber/ethreum-dapp-e-commerce/Back-End/contracts/Purchasing.sol",
  "compiler": {
    "name": "solc",
    "version": "0.5.16+commit.9c3226ce.Emscripten.clang"
  },
  "schemaVersion": "3.4.3",
  "updatedAt": "2021-08-25T16:35:40.637Z",
  "networkType": "ethereum",
  "devdoc": {
    "methods": {}
  },
  "userdoc": {
    "methods": {}
  }
}