{
  "contractName": "Purchasing",
  "abi": [
    {
      "constant": false,
      "inputs": [
        {
          "internalType": "string",
          "name": "artId",
          "type": "string"
        },
        {
          "internalType": "address",
          "name": "user",
          "type": "address"
        }
      ],
      "name": "purchase",
      "outputs": [],
      "payable": false,
      "stateMutability": "nonpayable",
      "type": "function"
    },
    {
      "constant": true,
      "inputs": [
        {
          "internalType": "address",
          "name": "user",
          "type": "address"
        }
      ],
      "name": "getproducts",
      "outputs": [
        {
          "internalType": "string[]",
          "name": "",
          "type": "string[]"
        }
      ],
      "payable": false,
      "stateMutability": "view",
      "type": "function"
    }
  ],
  "bytecode": "0x608060405234801561001057600080fd5b506106c5806100206000396000f3fe608060405234801561001057600080fd5b50600436106100365760003560e01c806359aee5521461003b578063c4228d8114610057575b600080fd5b61005560048036036100509190810190610464565b610087565b005b610071600480360361006c919081019061043b565b610190565b60405161007e919061057e565b60405180910390f35b6000808273ffffffffffffffffffffffffffffffffffffffff1673ffffffffffffffffffffffffffffffffffffffff1681526020019081526020016000208383909180600181540180825580915050906001820390600052602060002001600090919293909192939091929091925091906101039291906102b7565b50506000808273ffffffffffffffffffffffffffffffffffffffff1673ffffffffffffffffffffffffffffffffffffffff1681526020019081526020016000208060018154018082558091505090600182039060005260206000200160006040518060200160405280600081525090919091509080519060200190610189929190610337565b5050505050565b60606000808373ffffffffffffffffffffffffffffffffffffffff1673ffffffffffffffffffffffffffffffffffffffff168152602001908152602001600020805480602002602001604051908101604052809291908181526020016000905b828210156102ac578382906000526020600020018054600181600116156101000203166002900480601f0160208091040260200160405190810160405280929190818152602001828054600181600116156101000203166002900480156102985780601f1061026d57610100808354040283529160200191610298565b820191906000526020600020905b81548152906001019060200180831161027b57829003601f168201915b5050505050815260200190600101906101f0565b505050509050919050565b828054600181600116156101000203166002900490600052602060002090601f016020900481019282601f106102f857803560ff1916838001178555610326565b82800160010185558215610326579182015b8281111561032557823582559160200191906001019061030a565b5b50905061033391906103b7565b5090565b828054600181600116156101000203166002900490600052602060002090601f016020900481019282601f1061037857805160ff19168380011785556103a6565b828001600101855582156103a6579182015b828111156103a557825182559160200191906001019061038a565b5b5090506103b391906103b7565b5090565b6103d991905b808211156103d55760008160009055506001016103bd565b5090565b90565b6000813590506103eb8161066b565b92915050565b60008083601f84011261040357600080fd5b8235905067ffffffffffffffff81111561041c57600080fd5b60208301915083600182028301111561043457600080fd5b9250929050565b60006020828403121561044d57600080fd5b600061045b848285016103dc565b91505092915050565b60008060006040848603121561047957600080fd5b600084013567ffffffffffffffff81111561049357600080fd5b61049f868287016103f1565b935093505060206104b2868287016103dc565b9150509250925092565b60006104c88383610545565b905092915050565b60006104db826105b0565b6104e581856105d3565b9350836020820285016104f7856105a0565b8060005b85811015610533578484038952815161051485826104bc565b945061051f836105c6565b925060208a019950506001810190506104fb565b50829750879550505050505092915050565b6000610550826105bb565b61055a81856105e4565b935061056a818560208601610627565b6105738161065a565b840191505092915050565b6000602082019050818103600083015261059881846104d0565b905092915050565b6000819050602082019050919050565b600081519050919050565b600081519050919050565b6000602082019050919050565b600082825260208201905092915050565b600082825260208201905092915050565b600061060082610607565b9050919050565b600073ffffffffffffffffffffffffffffffffffffffff82169050919050565b60005b8381101561064557808201518184015260208101905061062a565b83811115610654576000848401525b50505050565b6000601f19601f8301169050919050565b610674816105f5565b811461067f57600080fd5b5056fea365627a7a7231582000707186ba402ab4d9924d781783789f747604950a55e2524136ca21ed4cb4dc6c6578706572696d656e74616cf564736f6c63430005100040",
  "source": "pragma solidity ^0.5.0;\npragma experimental ABIEncoderV2;\n\ncontract Purchasing {\n\n\tmapping(address => string[]) products;\n\n\n\tfunction purchase(string calldata artId, address user) external {\n\t\t\n\t\tproducts[user].push(artId);\n\t\tproducts[user].push(\"\");\n\n\t}\n\n\tfunction getproducts(address user) public view returns (string[] memory) {\n  \t\treturn products[user];\n\t}\n\n}\n",
  "sourcePath": "/Users/andreamarrocco/Desktop/WineParadise/E-commerce-DApp/Back-End/contracts/Purchasing.sol",
  "compiler": {
    "name": "solc",
    "version": "0.5.16+commit.9c3226ce.Emscripten.clang"
  },
  "schemaVersion": "3.4.3",
  "updatedAt": "2021-09-04T17:21:57.747Z",
  "networkType": "ethereum",
  "devdoc": {
    "methods": {}
  },
  "userdoc": {
    "methods": {}
  }
}