{
  "contractName": "Purchasing",
  "abi": [
    {
      "constant": false,
      "inputs": [
        {
          "internalType": "string",
          "name": "artId",
          "type": "string"
        },
        {
          "internalType": "address",
          "name": "user",
          "type": "address"
        }
      ],
      "name": "purchase",
      "outputs": [],
      "payable": false,
      "stateMutability": "nonpayable",
      "type": "function"
    },
    {
      "constant": true,
      "inputs": [
        {
          "internalType": "address",
          "name": "user",
          "type": "address"
        }
      ],
      "name": "getproducts",
      "outputs": [
        {
          "internalType": "string[]",
          "name": "",
          "type": "string[]"
        }
      ],
      "payable": false,
      "stateMutability": "view",
      "type": "function"
    }
  ],
  "bytecode": "0x608060405234801561001057600080fd5b506105bf806100206000396000f3fe608060405234801561001057600080fd5b50600436106100365760003560e01c806359aee5521461003b578063c4228d8114610057575b600080fd5b6100556004803603610050919081019061035e565b610087565b005b610071600480360361006c9190810190610335565b61010a565b60405161007e9190610478565b60405180910390f35b6000808273ffffffffffffffffffffffffffffffffffffffff1673ffffffffffffffffffffffffffffffffffffffff168152602001908152602001600020838390918060018154018082558091505090600182039060005260206000200160009091929390919293909192909192509190610103929190610231565b5050505050565b60606000808373ffffffffffffffffffffffffffffffffffffffff1673ffffffffffffffffffffffffffffffffffffffff168152602001908152602001600020805480602002602001604051908101604052809291908181526020016000905b82821015610226578382906000526020600020018054600181600116156101000203166002900480601f0160208091040260200160405190810160405280929190818152602001828054600181600116156101000203166002900480156102125780601f106101e757610100808354040283529160200191610212565b820191906000526020600020905b8154815290600101906020018083116101f557829003601f168201915b50505050508152602001906001019061016a565b505050509050919050565b828054600181600116156101000203166002900490600052602060002090601f016020900481019282601f1061027257803560ff19168380011785556102a0565b828001600101855582156102a0579182015b8281111561029f578235825591602001919060010190610284565b5b5090506102ad91906102b1565b5090565b6102d391905b808211156102cf5760008160009055506001016102b7565b5090565b90565b6000813590506102e581610565565b92915050565b60008083601f8401126102fd57600080fd5b8235905067ffffffffffffffff81111561031657600080fd5b60208301915083600182028301111561032e57600080fd5b9250929050565b60006020828403121561034757600080fd5b6000610355848285016102d6565b91505092915050565b60008060006040848603121561037357600080fd5b600084013567ffffffffffffffff81111561038d57600080fd5b610399868287016102eb565b935093505060206103ac868287016102d6565b9150509250925092565b60006103c2838361043f565b905092915050565b60006103d5826104aa565b6103df81856104cd565b9350836020820285016103f18561049a565b8060005b8581101561042d578484038952815161040e85826103b6565b9450610419836104c0565b925060208a019950506001810190506103f5565b50829750879550505050505092915050565b600061044a826104b5565b61045481856104de565b9350610464818560208601610521565b61046d81610554565b840191505092915050565b6000602082019050818103600083015261049281846103ca565b905092915050565b6000819050602082019050919050565b600081519050919050565b600081519050919050565b6000602082019050919050565b600082825260208201905092915050565b600082825260208201905092915050565b60006104fa82610501565b9050919050565b600073ffffffffffffffffffffffffffffffffffffffff82169050919050565b60005b8381101561053f578082015181840152602081019050610524565b8381111561054e576000848401525b50505050565b6000601f19601f8301169050919050565b61056e816104ef565b811461057957600080fd5b5056fea365627a7a72315820c2e1bdb68a6269d7fa62055e124f43d1188f5ad2fcb8f30cc15f92658c103b2c6c6578706572696d656e74616cf564736f6c63430005100040",
  "source": "pragma solidity ^0.5.16;\npragma experimental ABIEncoderV2;\n\ncontract Purchasing {\n\n\tmapping(address => string[]) products;\n\n\n\tfunction purchase(string calldata artId, address user) external {\n\t\t\n\t\tproducts[user].push(artId);\n\t}\n\n\tfunction getproducts(address user) public view returns (string[] memory) {\n  \t\treturn products[user];\n\t}\n\n}\n",
  "sourcePath": "/home/gabriele/Desktop/Cy_Sec/E-commerce-DApp/Back-End/contracts/Purchasing.sol",
  "compiler": {
    "name": "solc",
    "version": "0.5.16+commit.9c3226ce.Emscripten.clang"
  },
  "schemaVersion": "3.4.3",
  "updatedAt": "2021-09-04T14:23:33.768Z",
  "networkType": "ethereum",
  "devdoc": {
    "methods": {}
  },
  "userdoc": {
    "methods": {}
  }
}