{
  "contractName": "Seller",
  "abi": [
    {
      "constant": false,
      "inputs": [
        {
          "internalType": "address",
          "name": "us",
          "type": "address"
        },
        {
          "internalType": "string",
          "name": "artId",
          "type": "string"
        }
      ],
      "name": "sale",
      "outputs": [],
      "payable": false,
      "stateMutability": "nonpayable",
      "type": "function"
    },
    {
      "constant": true,
      "inputs": [
        {
          "internalType": "string",
          "name": "artId",
          "type": "string"
        }
      ],
      "name": "getSeller",
      "outputs": [
        {
          "internalType": "address",
          "name": "",
          "type": "address"
        }
      ],
      "payable": false,
      "stateMutability": "view",
      "type": "function"
    }
  ],
  "bytecode": "0x608060405234801561001057600080fd5b50610301806100206000396000f3fe608060405234801561001057600080fd5b50600436106100365760003560e01c8063a39029401461003b578063ca807db114610136575b600080fd5b6100f46004803603602081101561005157600080fd5b810190808035906020019064010000000081111561006e57600080fd5b82018360208201111561008057600080fd5b803590602001918460018302840111640100000000831117156100a257600080fd5b91908080601f016020809104026020016040519081016040528093929190818152602001838380828437600081840152601f19601f8201169050808301925050505050505091929192905050506101cf565b604051808273ffffffffffffffffffffffffffffffffffffffff1673ffffffffffffffffffffffffffffffffffffffff16815260200191505060405180910390f35b6101cd6004803603604081101561014c57600080fd5b81019080803573ffffffffffffffffffffffffffffffffffffffff1690602001909291908035906020019064010000000081111561018957600080fd5b82018360208201111561019b57600080fd5b803590602001918460018302840111640100000000831117156101bd57600080fd5b9091929391929390505050610261565b005b600080826040518082805190602001908083835b6020831061020657805182526020820191506020810190506020830392506101e3565b6001836020036101000a038019825116818451168082178552505050505050905001915050908152602001604051809103902060009054906101000a900473ffffffffffffffffffffffffffffffffffffffff169050919050565b8260008383604051808383808284378083019250505092505050908152602001604051809103902060006101000a81548173ffffffffffffffffffffffffffffffffffffffff021916908373ffffffffffffffffffffffffffffffffffffffff16021790555050505056fea265627a7a723158203c9ca0435ae539f78210c409189e7cb11c621e7a8cd8d3e4156f0fc246179c3b64736f6c63430005100032",
  "source": "pragma solidity ^0.5.16;\n\ncontract Seller {\n\n\tmapping (string => address) seller;\n\t\n\n\tfunction sale(address us, string calldata artId) external {\n  \t\tseller[artId] = us;\n\t}\n\n\tfunction getSeller(string memory artId) public view returns (address){\n\n  \t\treturn seller[artId];\n\t}\n\n}\n",
  "sourcePath": "/home/gabriele/Desktop/Cy_Sec/E-commerce-DApp/Back-End/contracts/Seller.sol",
  "compiler": {
    "name": "solc",
    "version": "0.5.16+commit.9c3226ce.Emscripten.clang"
  },
  "schemaVersion": "3.4.3",
  "updatedAt": "2021-09-08T15:20:52.821Z",
  "networkType": "ethereum",
  "devdoc": {
    "methods": {}
  },
  "userdoc": {
    "methods": {}
  }
}