{
  "contractName": "Voting",
  "abi": [
    {
      "constant": true,
      "inputs": [
        {
          "internalType": "uint256",
          "name": "",
          "type": "uint256"
        }
      ],
      "name": "candidateList",
      "outputs": [
        {
          "internalType": "bytes32",
          "name": "",
          "type": "bytes32"
        }
      ],
      "payable": false,
      "stateMutability": "view",
      "type": "function"
    },
    {
      "constant": true,
      "inputs": [
        {
          "internalType": "bytes32",
          "name": "",
          "type": "bytes32"
        }
      ],
      "name": "votesReceived",
      "outputs": [
        {
          "internalType": "uint256",
          "name": "",
          "type": "uint256"
        }
      ],
      "payable": false,
      "stateMutability": "view",
      "type": "function"
    },
    {
      "constant": false,
      "inputs": [
        {
          "internalType": "bytes32[]",
          "name": "candidateNames",
          "type": "bytes32[]"
        }
      ],
      "name": "voting",
      "outputs": [],
      "payable": false,
      "stateMutability": "nonpayable",
      "type": "function"
    },
    {
      "constant": true,
      "inputs": [
        {
          "internalType": "bytes32",
          "name": "candidate",
          "type": "bytes32"
        }
      ],
      "name": "totalVotesFor",
      "outputs": [
        {
          "internalType": "uint256",
          "name": "",
          "type": "uint256"
        }
      ],
      "payable": false,
      "stateMutability": "view",
      "type": "function"
    },
    {
      "constant": false,
      "inputs": [
        {
          "internalType": "bytes32",
          "name": "candidate",
          "type": "bytes32"
        }
      ],
      "name": "voteForCandidate",
      "outputs": [],
      "payable": false,
      "stateMutability": "nonpayable",
      "type": "function"
    },
    {
      "constant": true,
      "inputs": [
        {
          "internalType": "bytes32",
          "name": "candidate",
          "type": "bytes32"
        }
      ],
      "name": "validCandidate",
      "outputs": [
        {
          "internalType": "bool",
          "name": "",
          "type": "bool"
        }
      ],
      "payable": false,
      "stateMutability": "view",
      "type": "function"
    },
    {
      "constant": true,
      "inputs": [],
      "name": "getCandidateList",
      "outputs": [
        {
          "internalType": "bytes32[]",
          "name": "",
          "type": "bytes32[]"
        }
      ],
      "payable": false,
      "stateMutability": "view",
      "type": "function"
    }
  ],
  "bytecode": "0x608060405234801561001057600080fd5b506104bf806100206000396000f3fe608060405234801561001057600080fd5b506004361061007d5760003560e01c80637021939f1161005b5780637021939f146101c2578063b13c744b14610204578063cc9ab26714610246578063fdbc4006146102745761007d565b80631d1b1bfa146100825780632f265cf71461013a578063392e66781461017c575b600080fd5b6101386004803603602081101561009857600080fd5b81019080803590602001906401000000008111156100b557600080fd5b8201836020820111156100c757600080fd5b803590602001918460208302840111640100000000831117156100e957600080fd5b919080806020026020016040519081016040528093929190818152602001838360200280828437600081840152601f19601f8201169050808301925050505050505091929192905050506102d3565b005b6101666004803603602081101561015057600080fd5b810190808035906020019092919050505061033f565b6040518082815260200191505060405180910390f35b6101a86004803603602081101561019257600080fd5b810190808035906020019092919050505061036d565b604051808215151515815260200191505060405180910390f35b6101ee600480360360208110156101d857600080fd5b81019080803590602001909291905050506103c3565b6040518082815260200191505060405180910390f35b6102306004803603602081101561021a57600080fd5b81019080803590602001909291905050506103db565b6040518082815260200191505060405180910390f35b6102726004803603602081101561025c57600080fd5b81019080803590602001909291905050506103fc565b005b61027c610432565b6040518080602001828103825283818151815260200191508051906020019060200280838360005b838110156102bf5780820151818401526020810190506102a4565b505050509050019250505060405180910390f35b600115156102f4826000815181106102e757fe5b602002602001015161036d565b15151461033c5760018160008151811061030a57fe5b602002602001015190806001815401808255809150509060018203906000526020600020016000909192909190915055505b50565b600061034a8261036d565b61035357600080fd5b600080838152602001908152602001600020549050919050565b600080600090505b6001805490508110156103b857826001828154811061039057fe5b906000526020600020015414156103ab5760019150506103be565b8080600101915050610375565b50600090505b919050565b60006020528060005260406000206000915090505481565b600181815481106103e857fe5b906000526020600020016000915090505481565b6104058161036d565b61040e57600080fd5b60016000808381526020019081526020016000206000828254019250508190555050565b6060600180548060200260200160405190810160405280929190818152602001828054801561048057602002820191906000526020600020905b81548152602001906001019080831161046c575b505050505090509056fea265627a7a723158208698551025b1378206846d343c320b805c4e2ec90223a8656536fffaf7e1bb0264736f6c63430005100032",
  "source": "pragma solidity ^0.5.0; //We have to specify what version of compiler this code will use\n\ncontract Voting {\n  /* mapping is equivalent to an associate array or hash\n  The key of the mapping is candidate name stored as type bytes32 and value is\n  an unsigned integer which used to store the vote count\n  */\n  mapping (bytes32 => uint256) public votesReceived;\n  \n  /* Solidity doesn't let you create an array of strings yet. We will use an array of bytes32 instead to store\n  the list of candidates\n  */\n\n  //ok ci deve stare come buyers in Purchasing\n  bytes32[] public candidateList;\n\n  // Initialize all the contestants, posso passarglielo prima delle altre operazioni\n  function voting(bytes32[] memory candidateNames) public {\n    if(validCandidate(candidateNames[0]) != true){\n    \tcandidateList.push(candidateNames[0]);\n    }\n  }\n\t//ok mi ritorna l'ammontare dei voti del candidato\n  function totalVotesFor(bytes32 candidate) view public returns (uint256) {\n    require(validCandidate(candidate));\n    return votesReceived[candidate];\n  }\n\t//ok mi permette di votare per un candidato\n  function voteForCandidate(bytes32 candidate) public {\n    require(validCandidate(candidate));\n    votesReceived[candidate] += 1;\n  }\n\t//ok ci deve stare, deve verificare che un candidato è presente nella lista candidati!\n  function validCandidate(bytes32 candidate) view public returns (bool) {\n    for(uint i = 0; i < candidateList.length; i++) {\n      if (candidateList[i] == candidate) {\n        return true;\n      }\n    }\n    return false;\n  }\n\n  // This function returns the list of candidates. ok ci deve stare come getBuyers in Purchasing.\n  function getCandidateList() public view returns (bytes32[] memory) {\n    return candidateList;\n  }\n}\n",
  "sourcePath": "/Users/ilariaintroini/Desktop/wine/E-commerce-DApp/Back-End/contracts/Voting.sol",
  "compiler": {
    "name": "solc",
    "version": "0.5.16+commit.9c3226ce.Emscripten.clang"
  },
  "schemaVersion": "3.4.3",
  "updatedAt": "2021-09-07T14:11:07.461Z",
  "networkType": "ethereum",
  "devdoc": {
    "methods": {}
  },
  "userdoc": {
    "methods": {}
  }
}